S01100006275696C642F757032322E7331395B
S315200000000748854600F0EEF900F0B8F900F020F92F
S3152000001000F0C6F800F006F800F0F2F8FEE700005F
S315200000200028002080B500AF00F00CF800F014F88E
S315200000300300180000F064F8F8E780B500AFC0466A
S31520000040BD4680BD80B500AF024B55221A80C04602
S31520000050BD4680BD000C024090B585B000AF0023A0
S31520000060FB6032E0FB68180000F03AF8FC1D00F057
S315200000706BF803002370FB1D1B78002B22D0002376
S31520000080BB601CE0FB1D1A78BB6804331A411300C1
S315200000900122134010D0BA68F968104B180000F0FE
S315200000A03BFDFB68DBB29B00DAB2BB68DBB2D31840
S315200000B0DBB20133DBB20CE0BB680133BB60BB684B
S315200000C0032BDFDDFB680133FB60FB68032BC9DDF7
S315200000D0FF231800BD4605B090BDC046141C002065
S315200000E080B582B000AF786001227B689A40034BCE
S315200000F092B21A80C046BD4602B080BD000C0240B6
S31520000100B0B586B000AF0200FB1D1A7008217B181F
S315200001100B4A31CA31C312681A60FB1D1B78FF2BAC
S3152000012006D0FB1D1B780F2213407A18D35C00E003
S315200001300023044A1370C046BD4606B0B0BDC04673
S31520000140301C00200C08024080B500AF044B1B6811
S315200001501B09DBB20F221340DBB21800BD4680BD5F
S31520000160080C02400B4A08B50346106828B10A4914
S3152000017003448B4207D8136008BD0848064910601F
S3152000018003448B42F7D900F09FF90C2303604FF00C
S31520000190FF3008BDD81C00200024002000200020AD
S315200001A0134B144A10B5144C002193422160044687
S315200001B003D2D21A184600F0B5FB20460F4C00F0A9
S315200001C089F82168002348680222194600F0CCFCF1
S315200001D02068002319460222806800F0C5FC2068AA
S315200001E00023BDE81040C0680222194600F0BCBCBE
S315200001F0D81C0020F41C0020D81C0020B01B002096
S3152000020000F072B8431E012B084601D90020704722
S31520000210114600F099B800BF0B4608B10020704780
S315200002201146184600F06EB84FF0FF30704700BFF9
S315200002304FF0FF30704700BF002070470020704706
S315200002400138012801D90020704700F095B800BF79
S31520000250184B194A596C194841F0100110B45964C9
S31520000260196B41F001011963596A41F01001596275
S31520000270596A21F010015962196941F00101196189
S31520000280196921F001011961536A43F4EE6353623F
S31520000290136843F420131360D36840F2D92442F242
S315200002A00C0143F48013D36084605DF8044BC16075
S315200002B0704700BF00380240000002400010014095
S315200002C0034B186810F020001CBF5868C0B2704756
S315200002D000100140034B002040F2D9229A60586159
S315200002E0186170470010014008B5044B1B689868D8
S315200002F000F0AEF9024B0022DA6008BDB01B0020E8
S3152000030000100140094A00B58646002013689B0666
S3152000031008D5536813F0FF03F44603D00CF8013BCD
S315200003200130E6468842F1D15DF804FB0010014019
S31520000330044A13681B06FCD50A28506001D10D20FB
S31520000340F7E77047001001408446084689B1094AFC
S3152000035000B50CEB010E1CF8011B13681B06FCD51F
S315200003600A29516001D10D21F7E7E645F3D15DF861
S3152000037004FB70470010014001207047164B1748B8
S315200003801A6B174942F0180210B41A635C6C44F4D5
S3152000039080445C641C6944F018041C611C6924F0C8
S315200003A018041C615C6944F480445C615C6924F433
S315200003B080445C6100224FF0AA3302605DF8044B52
S315200003C0C36042608260026142610A60CB604A601B
S315200003D08A600A614A617047003802400010024074
S315200003E0000C0240334A34481368002143F00103CD
S315200003F082B013609160136823F0847323F48033F2
S3152000040013605060136823F480231360D160009139
S315200004100191136843F48033136003E0009BB3F526
S31520000420A04F09D0136803F400330193009B0133D6
S315200004300093019B002BF1D01E4B1B6813F4003355
S3152000044018BF01230193019B012B01D002B07047F5
S31520000450184B1A491A6C1A4842F080521A640A68D4
S3152000046042F440420A609A689A609A6842F40042CE
S315200004709A609A6842F4A0529A6058601A6842F0CC
S3152000048080721A601A689201FCD50E4A40F2056104
S315200004901160996821F003019960996841F0020181
S315200004A0A2F580629960936803F00C03082BFAD1B9
S315200004B002B070470038024010300024007000401F
S315200004C008544008003C0240014B1868704700BFA2
S315200004D0B01B00208A89F8B5054610070C4657D46C
S315200004E04B68002B04DC0B6C002B01DC0020F8BDD4
S315200004F0E66A002EFAD0002312F480522F682B6071
S3152000050032D0606DA3895A0705D56368C01A636B1C
S315200005100BB1236CC01A00230246E66A216A2846DC
S31520000520B047431CA38906D129681D292CD8294AFE
S31520000530CA40D60728D500226260D90422692260E3
S3152000054004D5421C01D12B6803B96065616B2F600D
S315200005500029CBD004F14403994202D0284600F06A
S31520000560E9F900206063C2E7216A01232846B047E3
S31520000570411CC7D12B68002BC4D01D2B01D0162BB4
S3152000058001D12F60B2E7A38943F04003A381AEE7F0
S315200005900F69002FAAD093070E6808BF4B690F601A
S315200005A018BF0023F61B8B60002E9FDD216AD4F82E
S315200005B028C033463A462846E047002806DCA38969
S315200005C043F04003A3814FF0FF3090E70744361AEB
S315200005D0EAE700BF0100402038B50B6905460C4606
S315200005E013B90025284638BD18B183690BB900F028
S315200005F0B7F8144B9C421BD16C68B4F90C30002B15
S31520000600EFD0626ED00704D4990502D4A06D00F015
S3152000061082F928462146FFF75DFF636EDA07054615
S31520000620E0D4A3899B05DDD4A06D00F07AF9D9E743
S31520000630054B9C4201D1AC68DFE7044B9C4208BFC6
S31520000640EC68DAE7601C0020801C0020401C00209B
S31520000650014620B9044B0549186800F038B9044B07
S315200006601868FFF7B9BF00BFA01C0020D9050020DD
S31520000670B01B0020002310B50446C0E90033C0E9B2
S315200006800433836081814366C281836119460822CF
S315200006905C3000F047F9054B6362054BA362054BBE
S315200006A0E362054B2462236310BD00BFF50C0020D6
S315200006B01B0D0020530D0020770D0020014900F06E
S315200006C006B900BFD905002008B5436EDA0705D460
S315200006D083899B0502D4806D00F01DF9002008BD9A
S315200006E008B5436EDA0705D483899B0502D4806D4D
S315200006F000F017F9002008BD70B568224D1E55433D
S315200007000E4605F1740100F07FF9044640B1002140
S31520000710C0E900160C30A06005F1680200F002F96D
S31520000720204670BD014B1868FFF7C8BFA01C0020EB
S31520000730014800F0F0B800BFE21C0020014800F09C
S31520000740F0B800BFE21C0020014800F0E4B800BF6A
S31520000750E31C0020014800F0E4B800BFE31C0020A1
S3152000076010B50446FFF7F0FFA3691BB1BDE81040A2
S31520000770FFF7F0BFC4E912332365134B134A1B68F6
S31520000780A262A34204BF0123A361204600F020F801
S315200007906060204600F01CF8A060204600F018F8A3
S315200007A00022E06004216068FFF764FFA068012250
S315200007B00921FFF75FFFE06802221221FFF75AFFA7
S315200007C00123A361D2E700BFA01C0020BD060020A4
S315200007D0F8B50746FFF7ACFF1E4B1E68B36913B981
S315200007E03046FFF7BDFF4836D6E90134013B03D535
S315200007F033680BB33668F7E7B4F90C50D5B9164B06
S31520000800E36004F15800656600F081F8FFF796FF73
S31520000810C4E90155C4E904552560A5610822294685
S3152000082004F15C0000F07EF8C4E90D55C4E91255C8
S315200008302046F8BD6834D9E704213846FFF75CFF27
S31520000840044630600028D5D1FFF778FF0C233B60A3
S31520000850EEE700BFA01C00200100FFFF08B5FFF750
S3152000086067FF034B03491868BDE8084000F012B83B
S31520000870B01B0020C906002008B5044B044918689F
S3152000088000F008F8BDE80840FFF758BFB01B00206D
S31520000890E10600202DE9F0410F4600F1480400262C
S315200008A0D4E90185B8F1010805D52468002CF7D1D3
S315200008B03046BDE8F081AB89012B06D9B5F90E305B
S315200008C0013302D02846B84706436835EAE72DE9C2
S315200008D0F8430646884600F148040027D4E90195E6
S315200008E0B9F1010905D52468002CF7D13846BDE8B1
S315200008F0F883AB89012B07D9B5F90E30013303D024
S3152000090029463046C04707436835E9E770477047B0
S315200009107047704770477047012070470120704725
S315200009207047704702440346934200D1704703F84C
S31520000930011BF9E738B50546002941D051F8043C9A
S315200009400C1F002BB8BFE41800F0C4FA1D4A136828
S3152000095033B9636014602846BDE8384000F0C0BA59
S31520000960A34208D9206821188B4201BF19685B6809
S3152000097009182160EDE71A465B680BB1A342FAD944
S3152000098011685018A0420BD12068014450188342A8
S315200009901160E0D118685B68536001441160DAE7A2
S315200009A002D90C232B60D6E7206821188B4204BF7E
S315200009B019685B68636004BF091821605460CAE740
S315200009C038BD00BFE81C002070B50E4E0C463168BD
S315200009D0054611B900F0B8F830602146284600F0E7
S315200009E0B3F8431C0AD0C41C24F00304A04207D049
S315200009F0211A284600F0A8F8013001D14FF0FF3423
S31520000A00204670BDEC1C00202DE9F041CD1C25F0C0
S31520000A10030508350C2D38BF0C25002D074601DBB4
S31520000A20A94205D90C233B6000263046BDE8F0815B
S31520000A302E4E00F04FFA33681C4634BB2946384602
S31520000A40FFF7C2FF431C04464DD134682646002ECC
S31520000A5040D123683146384604EB030800F074F889
S31520000A6080453AD1216803356D1A25F003050835EE
S31520000A700C2D38BF0C2529463846FFF7A5FF013037
S31520000A802BD023682B4423600EE02268521B1ED4F1
S31520000A900B2A16D96119A342256018BF59606368CD
S31520000AA008BF316062514B60384604F10B0600F0F6
S31520000AB017FA26F00706231DF21AB6D09B1BA35061
S31520000AC0B3E76268A3420CBF32605A60ECE7234664
S31520000AD06468B2E734467668B9E70C233B6038464B
S31520000AE000F0FEF9A1E72560DEE700BFE81C002044
S31520000AF00EB417B5044618B183690BB9FFF730FE5B
S31520000B0006AB059AA1680193204600F023FA03B0AC
S31520000B10BDE8104003B070470FB40A4B13B51C68EC
S31520000B2024B1A36913B92046FFF71AFE05AB049A30
S31520000B30A1680193204600F00DFA02B0BDE81040EE
S31520000B4004B07047B01B002038B5064D002304467C
S31520000B5008462B60FFF706FB431C02D12B6803B126
S31520000B60236038BDF01C00202DE9F7431D465D4B60
S31520000B701F6804460E46904627B1BB6913B938460E
S31520000B80FFF7EEFD584B9C4267D17C68B8F1020F07
S31520000B9006D0B8F1010F00F29F80002DC0F29C8094
S31520000BA0636EDB0705D4A389980502D4A06DFFF7F1
S31520000BB0B2FE21463846FFF70FFD616B41B104F1C5
S31520000BC04403994202D03846FFF7B4FE00236363FC
S31520000BD00023A3616360A389190603D521693846DA
S31520000BE0FFF7A8FEA38923F44A6323F00303B8F191
S31520000BF0020FA3816CD001AB6A462146384600F02D
S31520000C00F3F8A3891843A081002D30D1009D2846F2
S31520000C1000F050F90646002855D1DDF80090A94588
S31520000C204AD14FF0FF350022A26004F1470222602C
S31520000C3022610122B4F90C306261626E43F0020334
S31520000C40D207A38105D413F4007F02D1A06DFFF74C
S31520000C5068FE284603B0BDE8F083244B9C4201D1B0
S31520000C60BC6893E7224B9C4208BFFC688EE7002EA7
S31520000C70CDD0BB6913B93846FFF772FDB8F1010F25
S31520000C8008BFA389266004BF43F00103A381A2897C
S31520000C9012F00803C4E904651CD0D30741BF002322
S31520000CA06D42A360A56158BFA560656E15F001056C
S31520000CB015D112F4007FC8E7484600F0FBF8064637
S31520000CC00028AED04D46A38943F08003A381D0E708
S31520000CD00025A8E7A360E8E74FF0FF35B9E7002530
S31520000CE0B7E700BFB01B0020601C0020801C00203E
S31520000CF0401C002010B50C46B1F90E1000F0F8FB90
S31520000D000028ABBF636DA3891B1823F48053ACBFA7
S31520000D106365A38110BD002070472DE9F0411F4671
S31520000D208B89DB0505460C46164605D5B1F90E100E
S31520000D300223002200F046F8A389B4F90E1023F40A
S31520000D408053A38132463B462846BDE8F04100F059
S31520000D5017B810B50C46B1F90E1000F033F8431C45
S31520000D60A38915BF606523F4805343F48053A38180
S31520000D7018BFA38110BDB1F90E1000F013B8000002
S31520000D8038B5074D04460846114600222A601A4601
S31520000D90FFF738FA431C02D12B6803B1236038BD14
S31520000DA0F01C002038B5064D0023044608462B606B
S31520000DB0FFF73AFA431C02D12B6803B1236038BDF2
S31520000DC0F01C002038B5074D04460846114600227F
S31520000DD02A601A46FFF732FA431C02D12B6803B168
S31520000DE0236038BDF01C002070B50E46B1F90E10F8
S31520000DF0002996B014461D4608DAB6F90C300022B2
S31520000E002A601A0610D44FF480630EE06A4600F07A
S31520000E10B3FC0028F1DB019A02F47042A2F50053DC
S31520000E205A425A412A60EEE740230020236016B03A
S31520000E3070BD00008B8973B59D0706460C4607D505
S31520000E4004F14703236023610123636102B070BD6F
S31520000E5001AB6A46FFF7C8FF009905463046FFF703
S31520000E60D3FD48B9B4F90C309A05EFD423F0030327
S31520000E7043F00203A381E3E70D4BB362A38920600D
S31520000E8043F08003A381009B6361019B20615BB1DA
S31520000E90B4F90E10304600F0C9FD28B1A38923F01D
S31520000EA0030343F00103A381A0890543A581CDE770
S31520000EB0BD060020024B01461868FFF7A5BD00BFFE
S31520000EC0B01B0020024B01461868FFF733BD00BF58
S31520000ED0B01B00200148FFF71EBD00BFE11C00200B
S31520000EE00148FFF71EBD00BFE11C00209368013BAF
S31520000EF0002B10B4936007DA9469A34201DB0A2918
S31520000F0002D110BC00F070BB1368581C1060197019
S31520000F10084610BC7047F8B506460F461446D51845
S31520000F20AC4201D1002007E014F8011B3A463046B6
S31520000F30FFF7DCFF431CF3D1F8BD38B593681446A0
S31520000F40002513B95360184638BD00F027FCC4E9C4
S31520000F500155F9E72DE9F04F0D469DB01446984608
S31520000F60064618B183690BB9FFF7FAFB894B9D42F8
S31520000F701BD175686B6ED90705D4AB899A0502D447
S31520000F80A86DFFF7C8FCAB891B0701D52B69EBB908
S31520000F902946304600F082FBC0B16B6EDC070ED5C9
S31520000FA04FF0FF301DB0BDE8F08F7B4B9D4201D145
S31520000FB0B568DFE7794B9D4208BFF568DAE7AB896C
S31520000FC09805EDD4A86DFFF7ACFCE9E7002309935B
S31520000FD020238DF82930CDF80C803023DFF8C0810E
S31520000FE08DF82A304FF0010923469A4613F8012B33
S31520000FF00AB1252AF9D1BAEB040B0BD05B4622465F
S3152000100029463046FFF787FF013000F0AA80099A6B
S315200010105A4409929AF80030002B00F0A28000234F
S315200010204FF0FF32CDE905230AF1010A0493079315
S315200010308DF853301A935446052214F8011B58484C
S3152000104000F006FD049AD8B9D10644BF20238DF8B6
S315200010505330130744BF2B238DF853309AF80030B2
S315200010602A2B15D0079A544600204FF00A0C214609
S3152000107011F8013B303B092B4ED9B0B1079214E051
S31520001080A0EB080309FA03F313430493A246D2E71D
S31520001090039B191D1B680391002BBBBF5B4242F0CB
S315200010A0020207930793B8BF049223782E2B0CD104
S315200010B063782A2B35D1039B1A1D1B680392002BBC
S315200010C0B8BF4FF0FF3302340593DFF8D8A021785C
S315200010D00322504600F0BCFC40B14023A0EB0A009E
S315200010E003FA00F0049B03430134049314F8011B14
S315200010F02D488DF82810062200F0AAFC00283FD0A3
S315200011002A4B1BBB039B073323F0070308330393A8
S31520001110099B3B44099367E70CFB02320C460120EE
S31520001120A5E700230134059319464FF00A0C204603
S3152000113010F8012B303A092A03D9002BC5D0059186
S31520001140C3E70CFB012104460123F0E703AB009320
S315200011502A46174B04A93046AFF300800746781C71
S31520001160D6D16B6ED90705D4AB899A0502D4A86D62
S31520001170FFF7D7FBAB895B063FF512AF099811E75E
S3152000118003AB00932A460A4B04A9304600F08AF89E
S31520001190E4E700BF601C0020801C0020401C0020CB
S315200011A0A41C0020AA1C0020AE1C00200000000069
S315200011B0170F002013460A46014602480068FFF72B
S315200011C0C9BE00BFB01B00202DE9F0471646994640
S315200011D08A680B69DDF820809342B8BF13463360D6
S315200011E091F8432007460C460AB101333360236841
S315200011F0990642BF336802333360256815F0060529
S3152000120006D104F1190AE36832689B1AAB4226DC40
S3152000121094F84320131E226818BF012392062BD46C
S3152000122004F1430249463846C04701301ED02368A0
S31520001230E568326803F00603042B08BFAD1AA368DD
S3152000124022690CBF25EAE57500259342C4BF9B1A87
S31520001250ED1800261A34B5421AD1002008E00123E1
S31520001260524649463846C047013003D14FF0FF3039
S31520001270BDE8F0870135C6E7E1185A1C302081F811
S315200012804300224494F8451082F843100233C7E7FE
S315200012900123224649463846C0470130E6D001366A
S315200012A0D9E700002DE9FF470F7E0C9D782F914648
S315200012B080460C469A4601F1430207D8622F0AD887
S315200012C0002F00F0D880582F00F0A38004F14205AB
S315200012D084F842703AE0A7F16303152BF6D801A1F2
S315200012E051F823F03D13002051130020CD12002089
S315200012F0CD120020CD120020CD1200205113002047
S31520001300CD120020CD120020CD120020CD120020BB
S315200013105D140020811300203F140020CD120020F0
S31520001320CD1200207F140020CD1200208113002032
S31520001330CD120020CD120020471400202B681A1D44
S315200013401B682A6004F1420584F842300123A3E099
S3152000135020682968060601F104030AD50E682B6069
S31520001360002E03DA2D23764284F843305E480A2382
S3152000137019E00E682B6010F0400F18BF36B2EFE769
S315200013802B682068191D2960010601D51E6802E018
S315200013904606FBD51E8854486F2F0CBF08230A2308
S315200013A0002184F843106568A560002DA2BF21683E
S315200013B021F0040121600EB9002D4DD01546B6FB53
S315200013C0F3F103FB1167C75D05F8017D3746BB4284
S315200013D00E46F4D9082B0BD12368DE0708D52369DE
S315200013E061689942DEBF302305F8013C05F1FF35DF
S315200013F0521B2261CDF800A04B4603AA2146404647
S31520001400FFF7E2FE01304CD14FF0FF3004B0BDE8CB
S31520001410F087354881F845702968236851F8046BB0
S3152000142029601D0614D5DF0744BF43F0200323603F
S315200014301EB9236823F0200323601023B0E7236816
S3152000144043F0200323607823284884F84530E3E7D7
S31520001450590648BFB6B2E6E71546BBE72B682668AD
S315200014606169181D286035061B6801D5196002E0E0
S315200014707006FBD51980002323611546BAE72B6831
S315200014801A1D2A601D6862680021284600F0E0FACD
S3152000149008B1401B606063682361002384F84330F1
S315200014A0A8E723692A4649464046D0470130ABD0B3
S315200014B023689B0713D4E068039B9842B8BF18465D
S315200014C0A4E70123324649464046D04701309BD007
S315200014D00135E36803995B1AAB42F2DCEBE70025A2
S315200014E004F11906F5E700BFB51C0020C61C002034
S315200014F038B5074D04460846114600222A601A468A
S31520001500FEF78AFE431C02D12B6803B1236038BD47
S31520001510F01C002038B50C460968054609B1FFF7CE
S31520001520F9FF21462846BDE83840FFF703BA0000F8
S315200015302C4B1B68834270B5044651D0436A43B195
S31520001540DB68002B4AD1636A196811B12046FFF780
S31520001550F1F9616911B12046FFF7ECF9616A11B121
S315200015602046FFF7E7F9A16B11B12046FFF7E2F914
S31520001570E16B11B12046FFF7DDF9216C11B1204650
S31520001580FFF7D8F9E16D11B12046FFF7D3F9A16D28
S3152000159011B12046FFF7CEF9616B11B12046FFF756
S315200015A0C9F9A369E3B1A36A20469847A16CB9B1EA
S315200015B02046BDE87040FFF7ADBF495941B9043513
S315200015C0636A802DD968F8D12046FFF7B3F9BAE7C8
S315200015D00E682046FFF7AEF93146EFE70025EFE724
S315200015E070BD00BFB01B0020F8B50E461446054658
S315200015F018B183690BB9FFF7B3F8214B9C422BD165
S315200016006C68A369A360A3891A072FD523696BB3D6
S3152000161023692068C01A6369F6B28342374604DC20
S3152000162021462846FEF7D8FF30BBA368013BA360BE
S3152000163023685A1C22601E7063690130834204D0DD
S31520001640A389DB0706D50A2E04D121462846FEF7B4
S31520001650C3FF88B93846F8BD0A4B9C4201D1AC6815
S31520001660CFE7094B9C4208BFEC68CAE721462846CB
S3152000167000F014F80028CBD04FF0FF37EAE700BF80
S31520001680601C0020801C0020401C0020024B0A46C3
S3152000169001461868FFF7A8BFB01B0020324B70B573
S315200016A01D6806460C4625B1AB6913B92846FFF7D7
S315200016B057F82E4B9C420FD16C68A389B4F90C20A5
S315200016C019072CD4DD0611D40923336042F04003D8
S315200016D0A3814FF0FF303EE0254B9C4201D1AC6800
S315200016E0EBE7244B9C4208BFEC68E6E7580712D587
S315200016F0616B41B104F14403994202D03046FFF7B1
S3152000170019F900236363A38923F02403A38100230B
S31520001710636023692360A38943F00803A3812369B7
S315200017204BB9A38903F42073B3F5007F03D0214678
S315200017303046FFF77FFBA089B4F90C2010F0010397
S315200017400AD00023A36063695B42A361236943B97E
S3152000175010F08000BAD170BD810758BF6369A360BD
S31520001760F4E70020F7E700BFB01B0020601C002034
S31520001770801C0020401C002038B5074D002304465D
S31520001780084611462B60FEF757FD431C02D12B68F5
S3152000179003B1236038BD00BFF01C002093682DE9FB
S315200017A0F74F06460C4690461BB9002003B0BDE80D
S315200017B0F08F8B89180750D50B69002B4DD0A38944
S315200017C0D8F8007013F002096BD113F0010300F072
S315200017D09B804846CA46CB46BBF1000F00F00281EB
S315200017E050B95A460A21504600F032F9002800F036
S315200017F0FE800130A0EB0A09206821696369D9457A
S315200018004A4628BF5A46884240F2F480A5681D44BD
S31520001810AA4240F3EF8051462A4600F077F9236822
S315200018202B44236021463046FEF7D6FE002866D19B
S31520001830B9EB050940F0F68021463046FEF7CCFE8E
S3152000184000285CD1D8F80820AA44ABEB050B551B21
S31520001850C8F80850002DBFD1A7E721463046FFF72C
S315200018601DFF0028ABD04FF0FF309FE7D7E900B52A
S315200018700837002DFAD055452B46216AD4F828C0C2
S3152000188028BF53465A463046E047002837DDD8F869
S31520001890083083442D1A181AC8F808000028E8D101
S315200018A083E74FF0000BDFF880A15D46E1E7D7E93B
S315200018B0009A0837BAF1000FF9D0A3892068A268E8
S315200018C0990563D5524536D813F4906F33D02169E4
S315200018D06569A0EB010B05EB450505EBD5750BF10D
S315200018E001026D105244954238BF15465B053DD521
S315200018F029463046FFF788F848B90C233360A38978
S3152000190043F04003A381AEE799469A46D2E75A466A
S315200019102169019000F0ECF8A289019B22F49062E3
S3152000192042F08002A281236165615B44A5EB0B0531
S3152000193023605246A560524528BF52462068019230
S31520001940494600F0E3F8A368019A9B1AA36023682E
S315200019501A4455462260D8F80800A944AAEB050A7D
S31520001960451BC8F80850002DA4D11EE72A4630464C
S3152000197000F0E6F803460028D5D121693046FEF767
S31520001980D9FFA38923F08003A381B6E72369834285
S3152000199002D36169514515D9524528BF5246494659
S315200019A0154600F0B3F8A36822685B1B2A44A3609F
S315200019B02260002BCFD121463046FEF70DFE0028AF
S315200019C0C9D09CE76FF000439A4538BF5346A56AB5
S315200019D093FBF1F34A464B433046216AA847051E3E
S315200019E0B9DC8CE7D7E900AB00200837F4E60BF129
S315200019F0010901E7934208DCA56A216A524630466E
S31520001A00A847051E3FF714AF79E75146019200F02B
S31520001A107DF8019AA3689B1AA36023681344236068
S31520001A20154605E701200DE700FCFF7F38B5064D7A
S31520001A300023044608462B60FEF702FC431C02D115
S31520001A402B6803B1236038BDF01C00200000000085
S31520001A5001F0FF01102A2BDB10F0070F08D010F839
S31520001A60013B013A8B422DD010F0070F42B3F6D13D
S31520001A70F0B441EA012141EA014122F007047FF056
S31520001A8000070023F0E80256083C85EA010586EAAD
S31520001A90010685FA47F5A3FA87F586FA47F6A5FAE9
S31520001AA087F68EB9EED1F0BC01F0FF0102F00702F5
S31520001AB032B110F8013B013A83EA010313B1F8D1A0
S31520001AC00020704701387047002D06BF3546033881
S31520001AD0073815F0010F07D1013015F4807F02BFBA
S31520001AE0013015F4C03F0130F0BC0138704700BF0B
S31520001AF00A44914200F1FF3300D1704710B511F826
S31520001B00014B03F8014F9142F9D110BD884210B51F
S31520001B1001EB020402D98442234607D8431EA14280
S31520001B2008D011F8012B03F8012FF8E702440146EB
S31520001B308A4200D110BD13F8014D02F8014DF7E796
S31520001B402DE9F041804614460E4621B9BDE8F04104
S31520001B501146FEF759BF2AB9FEF7ECFE2546284660
S31520001B60BDE8F08100F01BF88442074602D8B4EBAA
S31520001B70500F12D821464046FEF746FF054600285C
S31520001B80EDD0BC422246314628BF3A46FFF7B0FF89
S31520001B9031464046FEF7CEFEE1E73546DFE751F80F
S31520001BA0043C181F002BBCBF0B58C0187047000000
S31520001BB0B41B002000000000601C0020801C0020B8
S31520001BC0401C002000000000000000000000000073
S31520001BD000000000000000000000000000000000DF
S31520001BE000000000000000000000000000000000CF
S31520001BF000000000000000000000000000000000BF
S31520001C0000000000000000000000000000000000AE
S31520001C1000000000726F772069733A2025640A203D
S31520001C20616E6420636F6C2069732025640A00004E
S31520001C303F065B4F666D7D077F6F777C395E7971D6
S31520001C40000000000000000000000000000000006E
S31520001C50000000000000000000000000000000005E
S31520001C60000000000000000000000000000000004E
S31520001C70000000000000000000000000000000003E
S31520001C80000000000000000000000000000000002E
S31520001C90000000000000000000000000000000001E
S31520001CA0B41B0020232D302B2000686C4C00656669
S31520001CB06745464700303132333435363738394177
S31520001CC0424344454600303132333435363738398D
S31520001CD06162636465660000000000000000000089
S31520001CE000000000000000000000000000000000CE
S31520001CF000000000000000000000000000000000BE
S31520001D0000000000000000000000000000000000AD
S31520001D10000000000000000000000000000000009D
S70520000000DA
